:020000040800F2
:1000000000200020AD590008A1580008A958000898
:1000100000000000000000000000000000000000E0
:10002000000000000000000000000000B1580008BF
:100030000000000000000000BB580008C558000880
:10004000FD590008FD590008FD590008FD59000838
:10005000FD590008FD590008FD590008FD59000828
:10006000FD590008D5580008FD590008FD59000841
:10007000ED580008FD590008FD590008393C0008FA
:1000800085490008FD59000800000000FD590008DE
:10009000FD590008FD590008FD590008FD590008E8
:1000A000FD590008FD590008FD59000805590008D0
:1000B0001D59000800000000FD5900080000000064
:1000C00010B5064C2378002B07D1054B002B02D02E
:1000D000044800E000BF0123237010BD7800002019
:1000E00000000000B4AB0008044B10B5002B03D097
:1000F0000349044800E000BF10BDC04600000000F6
:100100007C000020B4AB000803B4714649084000ED
:100110004900095E49008E4403BC70470022430831
:100120008B4274D303098B425FD3030A8B4244D3BF
:10013000030B8B4228D3030C8B420DD3FF22090201
:1001400012BA030C8B4202D31212090265D0030BC0
:100150008B4219D300E0090AC30B8B4201D3CB03B6
:10016000C01A5241830B8B4201D38B03C01A5241F8
:10017000430B8B4201D34B03C01A5241030B8B42FA
:1001800001D30B03C01A5241C30A8B4201D3CB02E5
:10019000C01A5241830A8B4201D38B02C01A5241CA
:1001A000430A8B4201D34B02C01A5241030A8B42CD
:1001B00001D30B02C01A5241CDD2C3098B4201D3E5
:1001C000CB01C01A524183098B4201D38B01C01A63
:1001D000524143098B4201D34B01C01A52410309DA
:1001E0008B4201D30B01C01A5241C3088B4201D389
:1001F000CB00C01A524183088B4201D38B00C01A36
:10020000524143088B4201D34B00C01A5241411A5C
:1002100000D20146524110467047FFE701B5002069
:1002200000F006F802BDC0460029F7D076E7704717
:100230007047C0468446100062468C4619006346EB
:1002400000E0C0461FB501F079FE002801D400216E
:10025000C8421FBD10B501F0B9FD4042013010BDCC
:1002600010B501F06BFE002801DB002010BD01205D
:1002700010BDC04610B501F061FE002801DD002070
:1002800010BD012010BDC04610B501F0E3FD0028EF
:1002900001DC002010BD012010BDC04610B501F0EA
:1002A000D9FD002801DA002010BD012010BDC04694
:1002B000844608006146FFE71FB500F06DFB00288B
:1002C00001D40021C8421FBD10B500F0EDFA404234
:1002D000013010BD10B500F05FFB002801DB0020ED
:1002E00010BD012010BDC04610B500F055FB002820
:1002F00001DD002010BD012010BDC04610B500F08A
:10030000FBFA002801DC002010BD012010BDC04612
:1003100010B500F0F1FA002801DA002010BD01202C
:1003200010BDC0469E2110B5C905041CFFF7F0FFA3
:10033000002803D1201C00F05FFE10BD9E21201C70
:10034000C90500F0B5FC00F057FE80231B069C4653
:100350006044F2E7F8B5CE46474643025A0A4E02D9
:100360004500C40F480091462D0E720A000E9446B7
:1003700080B59B09C90FB6092A1A8C4221D0002AE0
:100380000DDD00282DD1002E00D18DE0511E012A57
:1003900000D11DE1FF2A00D1ABE00A0027E0002ACE
:1003A0004DD0421B002D00D0CCE0002B00D179E0D5
:1003B000541E012A00D128E1FF2A00D197E0220033
:1003C000C5E0002A00DC96E000284FD0FF2D00D1C8
:1003D0008FE08021C9040E431B2A51DD2A0001331E
:1003E00018E0FF2D00D184E08021C9040E430121D3
:1003F0001B2A08DC31002020D140821A96403200AE
:10040000501E824111435B1A5A0159D407212A0018
:10041000194049D00F211940042900D00433590153
:1004200042D5501CFE2A3AD09B01C0B25B0AC005DF
:100430001843E4072043C0BCB946B046F8BDFE20CF
:1004400080466F1C38004746074200D08EE0002DE2
:1004500000D0B4E0002B00D1DBE0002E6CD0981B64
:10046000450100D4F7E00C00F31A3DE0002E1BD04C
:10047000511E012A00D182E0FF2A3AD00A00ABE7E0
:1004800031002020D140821A96403200501E824115
:100490000A439B185A01B9D56A1CFE2D75D1FF205D
:1004A0000023C4E70C003300DB08FF2A46D1002BF1
:1004B000F5D08022D20313435B02FF205B0AB6E72C
:1004C0009F01BF09380002F0E3FC053887408542F0
:1004D00024DC3B002021421B0132D3408A1A974082
:1004E0007A1E974100223B43590793D197E70C00AE
:1004F0003300DB08DBE7002A14D0421B002D4BD170
:10050000002BD0D0511E012A00D19EE0FF2AEFD04F
:100510000A001B2A5FDD0200731C7BE7504B2A1A7E
:100520003B40E1E7FE216A1C11423BD1002D5DD129
:10053000002B7FD0002E7FD10022DB085B025B0AFC
:10054000D0B274E7FF28D2D08024E40423430124EE
:100550001B2A07DC1C002025D440AA1A93405A1EEF
:1005600093411C43331B05000C004DE79F1B7A0190
:1005700022D4002FA6D100240020002357E79B1986
:1005800001250132590100D440E7012135481940C5
:100590005B0803400B43A7E7FF28A9D08021C904CB
:1005A0000B43B6E7FF2A00D179E79B195B0859078F
:1005B00000D02FE7DB08C1E70C00F71A82E7002B19
:1005C0002CD1002E93D180230024FF20DB032EE7C3
:1005D00001259B1B18E719002025D140AA1A93403A
:1005E0005A1E93410B4305009B1953E7002B00D182
:1005F0007EE7002E00D17CE78022D203914502D312
:10060000944500D23300DB0853E70C00F31A0135A0
:10061000FAE6002EAFD00C0033008DE7002E00D19B
:1006200067E78022D2039145EDD39445EBD20C00CD
:100630003300E8E733007FE79B1900225901B9D561
:10064000074A1340DB08012278E79B190132013584
:1006500059019AD4DAE6031E8DD0DB086EE7C04656
:10066000FFFFFFFBFFFFFF7DF0B54F464646D64636
:100670004402C0B547000E1C640A3F0EC50F002F90
:100680003CD0FF2F42D00023802299469A46E400B6
:10069000D20414437F3F73025B0A984673001B0E1B
:1006A000F60F002B1BD0FF2B13D042468021D20027
:1006B000C9041143884600207F3B2900FF1A4B469E
:1006C0007140C9B20F2B00D9B5E0744A9B00D358D2
:1006D0009F464346002B3FD1FF3F023303E0434692
:1006E000002B2DD1012329004A467140C9B21A437B
:1006F0000E2A38D86A48920082589746002C13D1A7
:1007000004239946033B00279A46C4E7002C05D1F1
:1007100008239946063BFF279A46BCE70C239946D7
:10072000093BFF279A46B6E7200002F0B1FB762787
:10073000431F9C4000237F4299469A463F1AAAE7EE
:10074000404602F0A5FB4246431F9A4076235B4297
:100750001B1A90460020B0E703234A461A439146ED
:100760000320FC33A9E70D00FF200022C005ED07A0
:1007700010432843E0BCBA46B146A846F0BD0D0080
:1007800000200022F2E75346022BEDD0032B33D09A
:10079000A046012B05D100200022E7E73500032801
:1007A0007AD03B007F33002B2DDD4246520707D025
:1007B0000F2241460A40042A02D004229446E04413
:1007C0004246120105D54246364B1A403B00904640
:1007D0008033FE2BC8DC42469201520AD8B2C5E7EC
:1007E00080220025FF20D203C0E78022D2031442DA
:1007F00002D04346134249D08022D2032243520200
:10080000FF20520AB2E70122D31A1B2BC3DC424657
:10081000DA4043469E37BB40591E8B411A4353076B
:1008200004D00F231340042B00D00432530129D5E8
:10083000012000229AE7424663015501AB4215D2DE
:100840001B200022013F01261C0052005B00002CEF
:1008500001DB9D4201D85B1B324301380028F3D1F4
:10086000581E8341134398460D009AE71A2001222F
:100870005B1BE8E7023B5A4253415B4235000022D2
:10088000D8B273E792010020520A6FE71A4352026E
:100890003500FF20520A69E74446ADE7ACAC0008DA
:1008A000ECAC0008FFFFFFF770B542004E024C00B1
:1008B00045026D0A120EC30F760A240EC90FFF2AD5
:1008C00010D0FF2C0CD00120A2420AD1B54208D191
:1008D0008B420FD0002A04D12800431E984100E02B
:1008E000012070BD0120FF2CFBD13543F9D14B40D5
:1008F0001800F6E70020F4E730B5420044024D024C
:10090000C30F4800640A120E6D0A000EC90FFF2AB9
:1009100019D0FF280BD0002A1ED100280BD1002DA2
:1009200027D0002C34D100292FD0080030BD002D55
:1009300028D1002A01D1002CF5D08B4207D1002B01
:1009400023D01800F2E7002C1CD1FF2814D0581E29
:10095000022318400138E9E70028F8D08B42F6D18D
:100960008242F4DCEBDBAC42F1D80020AC42DDD2B9
:10097000E5E7002CDAD0EAE7002D03D18B42E6D17F
:100980000020D3E702204042D0E701204042CDE7DB
:100990008B42E8D0DBE7C04630B5420044024D024E
:1009A000C30F4800640A120E6D0A000EC90FFF2A19
:1009B0001AD0FF280ED0002A1ED100280ED1002DFB
:1009C0002AD0002C0CD08B421DD0581E0223184078
:1009D000013810E0002D0DD1002A20D1002C1ED1AD
:1009E000002923D0080006E0002C03D1FF28ECD119
:1009F000002D17D0022030BD0028E6D08B42E4D174
:100A00008242E2DC04DBAC42DFD80020AC42F2D20E
:100A1000002B0BD01800EEE7002CECD0D5E78B4272
:100A2000D3D1F5E700208B42E5D0CEE7012040424C
:100A3000E1E7C046F0B54F464646D64643025B0A5C
:100A40004500C0B599460F1C2D0EC60F002D00D1D4
:100A500088E0FF2D00D18DE08022DB00D2041A4314
:100A60000023914698469A467F3D7C027B00640AAB
:100A70001B0EFF0F002B68D0FF2B21D08022E4003B
:100A8000D204144342467F3B5B1900215D1C0A2AB5
:100A90002EDC7E404246022A23DC013A012A00D99C
:100AA000BDE002296ED001292CD100200022C00512
:100AB000F60710433043E0BCBA46B146A846F0BD45
:100AC0002B00FF33002C65D0032241461143320036
:100AD000013588467A40FF350A2900DDD8E0160046
:100AE0000321404601228240A620C000024220D0BD
:100AF0005346022B46D0032B00D1BBE051464C4657
:100B00000129D2D02B007F33002B70DD620704D087
:100B10000F222240042A00D00434220103D5634B63
:100B20001C402B008033FE2B2CDCA201520AD8B2D1
:100B3000BDE790208000024227D1B938FF3810422B
:100B40006DD03E00A1468A46D2E7002C41D1012358
:100B500042461A4390462B00424601215D1C0A2A58
:100B600097DDC5E7002B26D104239846033B0025DB
:100B70009A467AE7002B18D108239846063BFF25B2
:100B80009A4672E7FF20002291E780220026FF208C
:100B9000D2038CE741460222013511438846FF35D6
:100BA0000A29A5DC02217E4074E70C239846093B04
:100BB000FF259A4659E7180002F06AF94A46431F92
:100BC00076259A4000236D42914698469A462D1A02
:100BD0004BE7200002F05CF94246431F9C402B1A71
:100BE000763B00215D1C0A2A00DC52E780E70122E7
:100BF000D31A1B2B00DD58E79E352200AC40DA40AB
:100C0000631E9C412243530704D00F231340042B3F
:100C100000D00432530137D50120002247E7210CD0
:100C20004A462404240C2700100C1204120C4443DE
:100C30005743484351433A0C09195218944203D977
:100C4000802149028C4660443F0411043F0CC919BD
:100C50008C01671EBC41120C890E12180C439201C4
:100C6000144312010ED5012362081C40144349E7C6
:100C70003E00A14680224B46D2031A435202FF2077
:100C8000520A14E71D003DE792010020520A0EE7C8
:100C90000F29EDD180224B46D2031342EAD01442F1
:100CA000E8D13E00FF20224301E7C046FFFFFFF7E7
:100CB000F8B54746CE464E0243024500720AC40FBD
:100CC000480080B594465F0A2D0E9B09000EC90F9F
:100CD000B609FF2824D0012251402A1A8C420FD095
:100CE000002A00DC6AE1002835D1002E00D1A2E004
:100CF000511E012A00D124E1FF2A21D00A002FE051
:100D0000002A00DC67E100285ED0FF2D18D080218A
:100D1000C9040E431B2A00DC76E02A00013332E0CE
:100D20002A00FF3A9146002E42D08C4255D04A46C6
:100D3000002A00D19CE0002D00D177E00C003300A8
:100D4000DB08002B00D16EE08022D20313435B024C
:100D5000FF205B0A24E0FF2DF2D08021C9040E435E
:100D600001211B2A08DC31002020D140821A964044
:100D70003200501E824111435B1A5A0160D4072190
:100D80002A00194057D00F211940042900D00433FC
:100D9000590150D5501CFE2A45D09B01C0B25B0AB8
:100DA000C0051843E4072043C0BCB946B046F8BDAF
:100DB000012251408C42BAD14A46002A10D0002D5F
:100DC00000D198E00023BBE7002E34D0511E012A49
:100DD0006ED0FF2AB4D00A009CE7002A00D088E039
:100DE000FE206A1C104200D092E0002D00D0A4E04A
:100DF000002B00D1CBE0002E00D0CAE00022DB089F
:100E00005B025B0AD0B2CBE731002020D140821ACE
:100E100096403200501E82410A439B185A01AED5BB
:100E20006A1CFE2D4AD1FF200023B9E7FF22002BC8
:100E30004BD10C003300DB08FF2A00D181E7DFE74C
:100E40009F01BF09380002F023F80538874085422A
:100E500021DC3B002021421B0132D3408A1A9740FB
:100E60007A1E974100223B43590700D08BE78FE75A
:100E7000FE206A1C104212D1002D52D1002B7CD0D2
:100E8000002EBBD09A1B500100D48BE0012400221D
:100E9000F31A0C40E8E7564B2A1A3B40E4E79F1B45
:100EA0007A0146D4002FCDD100240020002377E71B
:100EB0009B1901250132590100D460E701214D48F9
:100EC00019405B0803400B43CEE7571E012A5AD056
:100ED0000C00FF2A33D001221B2F07DC2021C91B65
:100EE0001A008B40FA40591E8B411A430500B31A71
:100EF00043E7002D23D1FF22002B9BD0511E012A56
:100F0000D6D0FF2A1BD01B292CDD0200731C3AE728
:100F1000FF2A88D09B195B08590700D033E7DB080C
:100F20006EE7002B10D1002E43D0012433000C407B
:100F300006E70124F71A0C4084E7002B04D13300A4
:100F4000FEE601259B1B18E7002E00D1F8E6802263
:100F5000D203974204D3944502D2012433000C40BB
:100F6000DB08F1E61A002025CA40691A8B40591E99
:100F70008B41134305009B1950E7002E94D00124A8
:100F800033000C403AE70C000125F31AF5E6330074
:100F900034E79B1900225901C1D5154A1340DB08DB
:100FA00001222DE7002A00D17EE713000022DB0892
:100FB00026E780230024FF20DB03F1E6002A00D18E
:100FC00056E7471B3A00002D00D130E78022D204BB
:100FD0000C0013437FE7002A00D101E7411B002DDD
:100FE00001D10A0088E78022D20413438BE7C04670
:100FF000FFFFFFFBFFFFFF7D41024200C30F490AD5
:101000000020120E7E2A03DD9D2A02DD094A98186F
:101010007047802000040143952A07DC9620821A3D
:10102000D1404842002BF3D10800F1E7963A9140B5
:10103000F7E7C046FFFFFF7F70B5002813D0C31746
:10104000C5185D40C40F280001F022FF9E23010057
:101050001B1A962B0FDC082834D008398D406D02FE
:101060006D0AD8B202E0002400200025C005284304
:10107000E407204370BD992B16DC421F052800D0E1
:1010800095402A00114802406E0709D00F263540CE
:10109000042D05D00432550102D59F2302405B1A6E
:1010A0009201550AD8B2E1E70522121A2800D04071
:1010B000020008001B3085402800451EA84102435D
:1010C0001500DEE76D0296206D0ACFE7FFFFFFFBFC
:1010D000F0B557464E464546DE46E0B583B0009033
:1010E00001910C034F00CE0F610A009C1D03640F99
:1010F0000C43009900920193C80059004B0D99468A
:10110000009A019B6D0AD90F530F2B439A46009BFF
:101110007F0DDA0094464A46B046BA1A8E4200D194
:10112000B0E0002A00DC78E04946002900D1E9E07F
:10113000C9498F4200D195E10125382A16DC80216A
:10114000534609040B439A461F2A00DDE7E120219C
:1011500055468B1A61469D40D1400D4361469940EA
:101160004B1E99415346D3400D43E41A451BA842F8
:1011700080414042241A230200D40FE16402640A31
:10118000002C00D139E1200001F082FE0300083B71
:1011900020212800CA1AD0409C4002009D402243D2
:1011A0009F4200DD73E1D81B0130091A2C008D40ED
:1011B000C4406B1E9D411300C2408B402543002755
:1011C00014001D436B0709D00F232B40042B05D0BF
:1011D0002B1DAB42AD416D4264191D00230200D4AA
:1011E0002DE19D4A0137974200D1D3E046469B4905
:1011F000ED0821404A072A437C054D022D0B640D62
:1012000024052C43F60734431000210003B0F0BC42
:10121000BB46B246A946A046F0BD002A00D184E0F4
:101220004A46D21B002F00D06DE12500054300D1B6
:1012300027E1561E012A00D13BE2874DAA4200D188
:101240006AE20125382E12DC32001F2A00DDF8E1A7
:1012500020262500B61A07005346B040D440B540BA
:10126000D740461EB0411B1B9A463D43054362468C
:10127000551BAC459241534652420E004F4688469C
:101280009C1A78E7002A00DC8EE04946002975D1D7
:1012900061465346194300D1F6E0511E012A00D1A0
:1012A00091E16D4DAA4200D1DCE00125382914DC22
:1012B0000A001F2A00DDA2E120215346891A8B4033
:1012C0001D006346D3401D4363468B4019004B1EEF
:1012D00099415346D3400D43E4182D18854280416F
:1012E00040422418230259D55B4B01379F4251D00D
:1012F00001215A4B6A081C4029400A43E50715435F
:1013000064085FE761465346194300D1BCE0511EB3
:10131000012A00D164E1504DAA4200D16AE10125C1
:10132000382900DD22E70A000EE74D4A7D1C1542F0
:1013300000D0D0E025006246534605431A43002FF3
:1013400000D037E1002D00D1A8E1002A00D16AE1E8
:101350006346C51A5346E21AA8429B415B42D31A20
:101360001A0200D403E263461D1AAC45924153466B
:1013700052421C1B0E008846A41A23E736498F42AE
:1013800070D00125382AA8DC8021534609040B437C
:101390009A468EE73C000025002231E707232B40C8
:1013A000002B00D010E793E0002A74D04A46D21BED
:1013B000002F00D1C7E02849894500D185E10125EA
:1013C000382A12DC802109040C431F2A00DDABE11E
:1013D00020212500891A070088408D40D740411EF2
:1013E0008841D4403D430543A2446544654592414C
:1013F0005242524414004F4674E7280001F048FD61
:10140000030018331F2B00DCC2E62A000838824094
:101410009F4200DDA9E0DB1B581C1F2800DCACE16B
:1014200015001F3BDD40202805D040231B1A9A40A1
:10143000531E9A411543072300272B40B0E7ED08C0
:10144000054B62072A43E4089F420FD02403250B73
:101450007C05640DD4E6C046FF070000FFFF7FFF58
:10146000FE070000C00862070243E408130023439C
:1014700000D186E180252D0325432D03C34C2D0B80
:10148000BEE6604654460E001700C508D8E7C04CBB
:10149000FF1A144096E6BF4A791C11426BD1220014
:1014A0000243002F00D0DBE0002A00D12DE162468C
:1014B00053461A4300D1B6E06346C51885428041C1
:1014C000544440422418230202D50F00B04B1C4064
:1014D0003A002800D8E76246851AA842924153464E
:1014E00052429146E31A1A004B46D21A1300914613
:1014F0001A0254D44A464C462A4300D040E60026FD
:10150000002400257CE6A14DA94500D190E00125ED
:10151000382A00DDABE680252D042C4395E611002A
:1015200055462039CD40A946202A06D040215346B1
:101530008A1A934062461A43944665466B1E9D4143
:101540004B461D4312E62100014300D1C4E0511E69
:10155000012A00D1FBE08D4DAA4200D1B5E0012562
:10156000382900DD41E70A002FE7894CFF1A1440B3
:101570006207E4086AE7854A914200D1E3E06346E6
:10158000C218824280412300404253441B18DD07A9
:101590005C080723520815430F002B4000E7634601
:1015A0001D1AAC459241534652421C1B0E00884600
:1015B000A41AE5E5002D00D091E0002A38D180245E
:1015C0000026240356E76346C518854280415444EB
:1015D000404224180127230200D4DFE6022787E6D1
:1015E0006346C51AA842804153464042E41A012787
:1015F000241AC0E56207C0080243E40836E7110078
:1016000053462039CB409946202A06D040215346E4
:101610008A1A934062461A43944665466B1E9D4162
:101620004B461D4359E66207C0080243E4080DE734
:1016300053465A076346D80853460E000243DC0857
:1016400014E715002600203DEE40202A03D0402557
:10165000AA1A94402043421E90410500354306E6F5
:10166000002A7CD062465346C0081A4300D1FAE6ED
:10167000620710438022E4081203144208D0D908FC
:10168000114205D16346D80853460C005B07184346
:10169000420FC000C00852070243E7E6002A00D10B
:1016A0002DE76346D80853465A070E000243DC086C
:1016B000CCE663461D1AAC459241534652421C1B70
:1016C0000E008846A41A013755E56346D9085346EB
:1016D0005A070A43DC08C9E660465446D4E6C00807
:1016E000002A00D1BFE6620710438022E4081203FB
:1016F0001442CDD0DD081542CAD16346D8085346FE
:101700005B070E002C001843C2E76346D908534616
:101710005A070A43DC0899E66346D80853465A0735
:101720000E000243DC08A1E6110027002039CF405B
:10173000202A03D040218A1A94402043421E90411F
:1017400005003D4351E60C000025002258E56044A9
:1017500060459241544452420500A4183AE753466A
:101760005A076346D90853460A43DC087EE61A0046
:101770001C002A4300D0ABE6C1E620210025091A4F
:1017800019E500220025014C3AE5C046FF0700009C
:10179000FFFF7FFFFE070000F0B5DE4645465746D7
:1017A0004E46E0B587B0009201930B031B0B9B469E
:1017B000CA0F4B00040080465B0D029200D16AE123
:1017C000D44A934200D18CE15946420FC9000A43E2
:1017D000802109041143C2009046CF4A89469246AF
:1017E0009A44002300240393009E019F3B031B0B9C
:1017F0009B467B0030005B0DFD0F002B00D128E1E4
:10180000C44A934200D177E15946720FC9000A4396
:101810008021090411438B46BF49F2008C46514692
:101820006344CB1A9A460023029E6E400F2C27D8A1
:10183000BA49A40009598F46CB464246029E039BF3
:10184000022B16D0032B00D1A6E2012B00D0DFE043
:1018500000220023002490461B052343F607334350
:101860004046190007B0F0BCBB46B246A946A046A8
:10187000F0BD002200249046A64BEDE72E00DFE7E6
:10188000CB4500D2D4E100D1CFE101235B429C469D
:10189000444648460027E2445B46150E1B021D43A2
:1018A000190C2B04120200951D0C91460291039510
:1018B000FEF7BAFC02006A430B04210C8046194370
:1018C0008A4209D9009D0123AC465B4261449C4693
:1018D000E0448D4200D8FBE1881A0299FEF7A4FC8F
:1018E000039A240442430904240C03000C43A2423B
:1018F00006D90099013B8C466444A14200D8E1E13D
:10190000A01A424612041A4393464B4659461B0CF2
:101910001D0004930B0449460904090C0C001B0C20
:101920005C43120C6B43884651436A43250CAC461A
:101930005B186344994203D9802149028C46624472
:10194000190C24041B04240C8A181C19904202D37D
:1019500016D1A74214D25B46009D013B4F4405932C
:101960004F459B41AC465B426344C018854200D35F
:10197000A1E1824200D9F6E100D1F1E1059B9B464D
:101980003C1BA742BF41009D801A7F42C01B85427D
:1019900000D1D0E10299FEF747FC039A0B044243C1
:1019A000210C070019438A4200D978E1881A02996C
:1019B000FEF73AFC039A240442430904240C030072
:1019C0000C43A24200D95DE14146A41A3A041A43ED
:1019D000049D13041B0C594347466B439C46100C53
:1019E00047430B0CBC44634468439F4203D98025A2
:1019F0006D02AC4660441F0C09041B04090C3F181F
:101A00005B18BC4200D202E100D1FDE001231A4381
:101A1000434B5344002B00DCAEE0510700D098E16B
:101A20005946C90106D559463E4B194080238B467D
:101A3000DB0053443C498B4200DD1AE75946D2088B
:101A4000490711435A465B0554028846240B5B0D37
:101A500002E75A46009B1A4300D17EE05B46002B0A
:101A600000D100E1584601F013FA020003000B3ADE
:101A70001D27009EBA1A19005846D64008398840DA
:101A8000320002439346009A8A40284953448A46CA
:101A90009A440023C8E65B460343994656D05B460A
:101AA000002B00D1CDE0584601F0F2F90B235B4248
:101AB0009C460200844466461D239B1B26001100A1
:101AC0005846DE40083988403300034399462300D6
:101AD0008B409846164B00249B1A9A46002303938A
:101AE00082E65A46024391462AD100229A460223B0
:101AF00090460824039377E65A46009B1A430D4B01
:101B00009C46E244002A17D102231C4300239B4633
:101B1000023389E6FF07000001FCFFFF28AD000843
:101B2000FF030000FFFFFFFEFE070000F3030000BD
:101B30000DFCFFFF01F8FFFF032332001C4373E697
:101B40009A460323D9460C2403934DE60023984676
:101B50009A4601330424039346E601231C430023E1
:101B60009B46013360E60023802498460026924B72
:101B7000240371E6012252420121C91A382900DDED
:101B800066E61F2900DCABE01F204042C31A58461E
:101B9000D8400300202904D0584688495144884041
:101BA0000243511E8A411A430723190000241140A1
:101BB00013420CD00F231340042B00D1F9E0111D68
:101BC00091429B410A005B4259075B021C0BD20801
:101BD0000A43904600233FE680244B4624032342D9
:101BE00009D05B46234206D11C4324032E009046B5
:101BF000714B240B30E680244B4624031C43240302
:101C0000029E6D4B240B27E6002B00D100E70098C5
:101C1000511E84466444844200D284E0BC4200D217
:101C2000AEE000D1C1E00A00F0E6424500D92CE662
:101C30004B46DC07580843465B081C434346DF0716
:101C40002AE601F025F915239C46844402006346E8
:101C500020321C2B00DC2EE72300083883409946F5
:101C60000023984636E701F013F90200030015320D
:101C700020331C2A00DCFBE6009908388140002252
:101C80008B4602E70099013B8C466444A14200D98F
:101C90009AE6A24200D897E6831E644494E6AC46D6
:101CA0006144013F8D4200D980E68A4200D87DE63A
:101CB000871E61447AE6854200D05FE6B94500D9C7
:101CC0005CE656E6A24200D81AE6831E644417E694
:101CD0008A4200D800E6AC46831E98466144FBE584
:101CE00037481400504482405B4617008340CC4084
:101CF0007A1E974123433B431A005B46CB40510772
:101D000009D00F211140042905D0111D91429241A3
:101D100052429B180A00190200D455E70022012301
:101D20000024904698E50A00BC4200D06EE64B4580
:101D300000D06BE66CE6234B234A5344924500DA0D
:101D400018E7012149420A1D8A42894149428B44D0
:101D500066E60F211140042900D161E61100F2E787
:101D6000BC4200D80AE602235B429C4600994F44DD
:101D70004F459B41E3448C465B426344C018FFE5FA
:101D80004946009D480048458941AC464942614466
:101D90008146023A6418C7E780245B4624031C434B
:101DA00024039046044B240B56E59945E8D30A00DA
:101DB000BDE7002308E7C046FF0700003E0400001F
:101DC0001E040000FF03000002FCFFFFF0B55746B1
:101DD000DE464E464546E0B50D000400E80F83465A
:101DE0000903D80F090B824619488C461F03690066
:101DF0005E00490D3F0B760D814218D086420FD010
:101E00000120B1420DD1BC450BD1944209D1D3453B
:101E10001CD0002905D160462043431E984100E0B4
:101E20000120F0BCBB46B246A946A046F0BD012049
:101E30008E42F6D1614639430F0017432743F0D154
:101E40005B465246981A431E9841EAE70020E8E7AD
:101E5000FF070000F0B557464E464546DE46E0B562
:101E60000D000F03390B83B0040080460191580028
:101E7000E90F314F400D8C466E00190382469146A2
:101E8000760D090BD80FBE421FD0BA450FD0002ED9
:101E90002FD15546019E3443002D27D10A433AD015
:101EA000002C45D100281AD10120404217E01143EF
:101EB0003BD1002E02D1019F2743F3D0844509D1A5
:101EC0006346002BF0D0604609E0019F27432CD1E8
:101ED000B24524D063460220013B1840013803B0CC
:101EE000F0BCBB46B246A946A046F0BD002CD9D0F6
:101EF000E4E75446002CEDD08445EBD15645E9DCAF
:101F0000DEDB019B8B42E5D8DAD1C845E2D8002060
:101F1000C845E4D2D4E70020002CE0D0DAE7114332
:101F200003D18445D6D10020D9E702204042D6E72C
:101F30008445E6D0CEE7C046FF070000F0B557461F
:101F40004E464546DE46E0B50D000F0304008046D0
:101F5000E80F390B844683B05800304F400D019193
:101F60001E03690082469146490D360BD80FB942CF
:101F700020D0BA450FD000292BD101990C435146EE
:101F8000002937D1324338D0002C44D1002819D150
:101F90000120404216E0164313D1002902D1019FCF
:101FA0002743F3D0844520D063460220013B1840EC
:101FB000013807E0019F274303D18A45F4D1164336
:101FC0001FD0022003B0F0BCBB46B246A946A046D3
:101FD000F0BD5446002CE7D08445E5D15145E3DC03
:101FE00003DB019BB342DFD80FD06346002BCFD079
:101FF0006046E7E7002CC9D0D4E70020002CE1D0F0
:10200000D2E78445D0D10020DCE7C845CCD80020F9
:10201000C845D7D2E9E78445E3D0C5E7FF0700000C
:10202000F0B55746DE464E464546E0B51F000B0369
:102030001B0B16009A46CA0F4B000400934687B04C
:102040005B0D00D1D5E0BB4A934200D1F8E0514688
:10205000420FC9000A43802109041143C20091467E
:10206000B54A8A469D180023984602933C037B009C
:10207000FA0F3000240B5B0D009200D196E0AD4AC0
:10208000934231D0720FE40022438024240414438D
:10209000A94AF000944663445B195A1C01924246D7
:1020A00000260A2A42DC5A4600994A409346424694
:1020B000022A32DC013A012A00D949E1022E00D17C
:1020C000CAE0012E3DD100230024002210005A4610
:1020D0001B052343D2071343190007B0F0BCBB46CE
:1020E000B246A946A046F0BD924B2643EB18002EFF
:1020F00000D1BBE00322414611435A46884600996D
:102100004A40802109018C462900614401914146E1
:102110000A2900DD33E29346032642460127974011
:10212000A6213A00C9000A400F4231D0029E022E79
:1021300000D135E2032E00D1D2E154464846012EAB
:10214000C1D0019A7D4B94466344002B00DCC0E073
:10215000420709D00F220240042A05D0021D824204
:102160008041404224181000E20106D5744B019AC8
:102170001C4080239446DB006344724A93426BDC2C
:102180006207C00864025B050243240B5B0D9DE7F8
:10219000902189000F4263D188223A4200D1D7E0D2
:1021A000009BA2469B4681460296BFE7230033432D
:1021B00000D17FE0002C00D1ADE1200000F068FEEE
:1021C000020003000B3A1D201900821A3000083962
:1021D000D0408C400443300088405B4AEB1A944660
:1021E00063445A1C0192424600260A2A00DC5AE740
:1021F0009CE753460343994654D05346002B00D1E5
:1022000077E1504600F044FE0B235B429C460200FF
:10221000844411005046083988401D23804660469A
:102220001B1A2000D8400300404603439A4623006F
:102230008B4099460023444D9846AD1A029315E70A
:1022400052460243914626D100221D0002239246A7
:1022500008329046029309E700240022354B35E707
:10226000002380249B462403324B2FE70222414661
:1022700011438022120194462A006244884601924A
:102280000A2900DD52E75A460020009904004A401E
:10229000934602260BE70C221D000323814690463D
:1022A0000293E3E600239A4604339846033B002555
:1022B0000293DBE6424601331A432B0090465A1C38
:1022C000019242460024002001260A2A00DCEAE6A8
:1022D0002CE70122D21A382A00DDF4E61F2A00DC9E
:1022E0002AE11F214942CB1A2100D9400B00202AA4
:1022F00005D0164A019D94466544AC402043421ED9
:1023000090411843072319000024014003420CD0D8
:102310000F230340042B00D140E1031D8342A4415D
:102320001800644261076402240BC20800230A43B8
:10233000CCE6C046FF07000001FCFFFFFF030000E2
:10234000FFFFFFFEFE0700000DFCFFFF3E04000044
:1023500049464A460904090C0D00160C020C0004FB
:10236000000C4543AC4605007543A84615000F0018
:102370007543009202952A00009D6F4365462D0C1F
:10238000A94647444F44B84505D91500802252025A
:102390009046454402953D0C039565462D043F0447
:1023A0002D0CAC463D0065440495250C2404240CFA
:1023B000AC4625007543A84665460F006943414475
:1023C00089466743390C49446E43884503D98022C6
:1023D0005202904646440D0CA846350045440595EA
:1023E000039D3F04A8463F0C0904C919884445468B
:1023F000039555462E04360C2F0C35004543784383
:1024000081463800A8462D0CAA46009A50437243D4
:102410004A445244914503D980256D02A946484457
:10242000150CA94645462D042D0CA84665467D434E
:10243000120448449044A9463200654662436E4304
:102440007C43170C3619BF19BC4203D9802464029F
:10245000A446E144029C039EA446059D66448E4228
:102460008941AC4612043C04120CA2186244494251
:1024700054184644A4464645A44182466442A046B8
:10248000AA4292418C458941E244D0444942524299
:102490000A43A045A44182458941644249420C4314
:1024A00041463F0CD2191219CC0D04997002084311
:1024B000411E884141464A44F60D520230434902CA
:1024C00014430843D20135D5012243080240134387
:1024D000E0071843640834E6009BA2469B46814609
:1024E0008024534624031C4324034A462E4B240BCA
:1024F000ECE500F0CDFC15239C46844402006346C5
:1025000020321C2B00DC84E6002399462300083887
:1025100083409A468EE600F0BBFC020003001532B1
:1025200020331C2A00DC4EE602003400083A00206A
:10253000944052E6019304E61C4B21009C460300A4
:10254000019DD3406544A94019430300AB40581E88
:10255000834119430800D4404B0709D00F230B4097
:10256000042B05D00B1D8B428041404224181800DB
:10257000230200D4D6E6012300240022A6E50F2979
:10258000AAD1802352461B031A42A9D01C42A7D1CC
:102590001C43009B02009B46034B97E50024C1E6C9
:1025A0000024014B220091E5FF0700001E040000FB
:1025B000F0B54E464546DE465746E0B585B000903C
:1025C00001910C034F00CE0F610A009CB046640FCE
:1025D0000C4300997F0DC80011001A001B039C4694
:1025E0000091019251004B0D9946019B009DD90F1E
:1025F00063466A0F5B0A1343EA0094469346C14A56
:1026000003900293914500D1CDE0012569404D46EC
:102610007D1BAA468E4200D180E0002D00DC35E310
:102620004946002900D1DFE0974200D194E15246AB
:102630000125382A19DC8022029B120413430293DD
:1026400052461F2A00DDE3E1534620226146029DE7
:10265000D21A9540D9400D43614691400A00511E5F
:102660008A411543029ADA40A41A451BA8428041C8
:102670004042241A230200D43DE16402640A002C83
:1026800000D147E1200000F003FC0300083B2021BB
:102690002800CA1AD0409C4002009D4022439F421D
:1026A00000DD77E1D81B0130091A2C008D40C440B1
:1026B0006B1E9D411300C2408B4025430027140030
:1026C0001D436B0709D00F232B40042B05D02B1D76
:1026D000AB42AD416D4264191D00230200D440E1BC
:1026E000884A0137974200D101E1012643468649D5
:1026F000ED0821404A072A437C054D022D0B640D4D
:102700001E4024052C43F60734431000210005B079
:10271000F0BCBB46B246A946A046F0BD002D00DC89
:10272000D0E24946002900D0D4E06146029B19431B
:1027300000D12BE1691E012D00D1D9E1954200D1D4
:102740000AE10125382917DC8A4653461F2B00DD94
:10275000E7E12022D21A029B614693401D005346B6
:10276000D940634693401A000D43511E8A41534697
:102770001543029ADA40A4182D1885428041404240
:102780002418230200D4B6E05E4B01379F4200D1EB
:10279000ADE001215C4B6A081C4029400A43E50773
:1027A000154364088DE7594A029B92466246BA4433
:1027B0001A432CD08E422ED05246002A60D0002FD1
:1027C00000D1DBE063460E00029CD808620702439A
:1027D000E4081300234300D154E280252D03254350
:1027E0002D03484C2D0B8CE76146029B194300D109
:1027F000CCE029000139012D00D188E1954200D1BA
:10280000AAE00125382900DD2FE78A4618E70122D2
:1028100051408E42D0D15346002B00D1BEE0002F54
:1028200000D038E1CA462200024300D1E2E153461B
:10283000591E012B00D10DE2324A924500D1D2E15E
:102840000127382913DC1F2900DDEEE12022029B3D
:10285000521A250007009A46CC4090409540CF4040
:10286000A244421E904153462F43074302933D002A
:10287000654465459241029B52424F46D41880E719
:10288000234A7D1C154200D0AAE062462500029B27
:1028900005431A43002F00D0F5E0002D00D16BE175
:1028A000002A00D152E16346C51A029BE21AA842EF
:1028B0009B415B42D31A1A0200D4D5E163461D1A2C
:1028C000AC4592410126029B52421C1B8846A41A29
:1028D0000E40F6E697423FD052460125382A00DDE9
:1028E0004AE78022029B1204134302932DE73C0027
:1028F0000025002205E707232B40002B00D0E2E64D
:102900006BE0C046FF070000FFFF7FFF01F8FFFFFD
:10291000FE070000280000F0BBFA030018331F2B4D
:1029200000DCB4E62A00083882409F4200DDB9E0AE
:10293000DB1B581C1F2800DCA0E115001F3BDD40FD
:10294000202805D040231B1A9A40531E9A41154354
:10295000072300272B40D0E7C00862070243E408A2
:1029600037E7EA0863071A43D34BE4089F4200D1D4
:102970002FE72403250B7C05640DC2E6CA4622001E
:10298000024358D163460E00029C0393039B5746B3
:10299000DA08E7E7C94CFF1A144092E6C84D7A1CE2
:1029A0002A4200D084E022000243002F00D0EFE052
:1029B000002A00D1E5E0624602990A4300D1C5E051
:1029C0006346C5188C4685428041644440422418C1
:1029D000230202D5B94B01371C40BA460395D5E70F
:1029E0006246851AA842924152429146029BE31ADE
:1029F0001A004B46D21A130091461A026CD44A466A
:102A00004C462A4300D03AE600260024002578E60A
:102A1000029953460D00203AD540202B06D0402283
:102A2000D21A0B00934062461A4393465B465A1EE5
:102A300093411D4319E653465A1E012B00D1C6E0AF
:102A40009D4EB24500D1BDE688460E000125382ACC
:102A500010DC1F2A7FDC20212500891A070088400E
:102A60008D40D740D440411E8841029B3D431B1BF3
:102A7000054302936246551BAC459241029B52426C
:102A80004F469C1AF6E5002D00D0B7E0002A00D191
:102A9000F0E001260E4063460298D90842070A4337
:102AA000C40896E6854CFF1A14406207E40860E704
:102AB00081498A4200D1C9E06346C1188142804100
:102AC000029B4042E3181B18DD075C0807234908F6
:102AD0000D4317002B4010E763461D1AAC45924189
:102AE0000126029B52421C1B8846A41A0E40C6E5D2
:102AF0006346C518029B854280419C46404264441F
:102B000024180127230200D4F5E6022741E6634694
:102B1000C51AA8428041029B4042E41A0127241AA8
:102B2000A8E5029D52462B00203AD3401900534697
:102B3000202B06D04022D21A2B00934062461A4323
:102B400093465D466B1E9D410D4315E66207C00826
:102B50000243E4080DE7110027002039CF40202A66
:102B600005D040218A1A9440250005430395039D12
:102B70006A1E95413D437DE7002A00D144E70126C6
:102B80000E406346D908029B5A070A43DC08F0E668
:102B9000002A28D06246029FC0083A4300D1DCE6F2
:102BA000620710438022E4081203144209D0FD0892
:102BB000154206D1634601262C00D8087B0718432E
:102BC0000E40420FC000C0085207024301E66346B0
:102BD0001D1AAC459241029B52421C1B0E008846B6
:102BE0000127A41A46E56346D908029B5A070A43FF
:102BF000DC08EEE56346029C0393C7E6C008002AA2
:102C000000D1AAE6620710438022E40812031442AE
:102C1000D7D0029FFD081542D3D163460126D808BC
:102C20007B072C0018430E40CBE70A002700203A10
:102C3000D740202905D04022521A94402500054350
:102C40000395039D6A1E95412F4310E6140000254D
:102C5000002256E5029B60449946604592414C44EF
:102C600052420500A4184CE71A001C002A4300D069
:102C7000B3E6C9E6802400262403AEE52021002522
:102C8000091A17E5002200250B4C3AE5002D00D16A
:102C9000F6E54B46DA1B9246002F00D16FE6382A44
:102CA00005DC80263604344388460E00D1E688468B
:102CB0000E000125DEE6C046FF070000FFFF7FFF94
:102CC000FE070000002D00D168E64B46D91B002FFF
:102CD00001D18A46A7E50127382900DDC7E5802212
:102CE00012041443AFE5C046F0B5C6461E03360BCA
:102CF000B0460D4E0C034D005F0000B5240B6D0D6A
:102D00007F0DB5420BD0084900208F4204D14646C2
:102D100016433000431E984180BCB846F0BD0443C2
:102D20000120002CF8D1EEE7FF0700000B000200A5
:102D300070B5164D0C0382B049000020009201933B
:102D4000240B490DDE0FA94204DD1148814203DD49
:102D5000104BF01802B070BD8020400320430E4C91
:102D6000641A1F2C08DD0D4B5B1AD8400300584233
:102D7000002EEFD11800EDE7094B009A9C460300A6
:102D800061448B40E2401343F1E7C046FE0300007C
:102D90001D040000FFFFFF7F330400001304000048
:102DA000EDFBFFFF70B5002816D0C317C5185D40B6
:102DB000C40F280000F06CF8104B1B1A5B055B0D6C
:102DC0000A2814DC02002E00153296400B22121A3B
:102DD000D5402D032D0B03E0002400230025002601
:102DE0001B052B43E40723433000190070BD0B384B
:102DF00085402D0300262D0BF2E7C0461E0400007F
:102E000070B542024300C40FFE201B0E591C550A28
:102E100008420CD0E02189008C466D07120B6344F8
:102E20001B051343E40723432800190070BD002B42
:102E300014D1002D1BD0280000F02AF80A281CDC31
:102E40000B232A001B1ADA40030015339D400E4B5A
:102E500012031B1A5B05120B5B0DE1E7002D09D075
:102E6000130B802212031A436D07084BD8E7002387
:102E70000022D5E70022054BD2E703002A000B3BD6
:102E80009A400025E3E7C04689030000FF070000E1
:102E90001C2101231B04984201D3000C10391B0A8A
:102EA000984201D3000A08391B09984201D300094E
:102EB000043902A2105C40187047C04604030202A5
:102EC00001010101000000000000000080B582B097
:102ED00000AF0200FB1D1A70FB1D1B787F2B09D869
:102EE000FB1D1B781A001F231A40044B012191403F
:102EF0000A001A60C046BD4602B080BD00E100E095
:102F000090B583B000AF02003960FB1D1A70FB1D45
:102F10001B787F2B28D82F4AFB1D1B785BB29B08A0
:102F2000C0339B009B58FA1D1278110003220A40FF
:102F3000D200FF2191400A00D2431A4011003B68A1
:102F40009B01FF221A40FB1D1B781800032303403E
:102F5000DB009A401F48FB1D1B785BB29B080A43AD
:102F6000C0339B001A5031E01B4AFB1D1B7819002F
:102F70000F230B40083B9B0806339B00D3180433F8
:102F80001B68FA1D1278110003220A40D200FF21AB
:102F900091400A00D2431A4011003B689B01FF2276
:102FA0001A40FB1D1B78180003230340DB009A40E6
:102FB0000948FB1D1B781C000F232340083B9B087E
:102FC0000A4306339B00C31804331A60C046BD464B
:102FD00003B090BD00E100E000ED00E084B090B5EA
:102FE00085B000AF20243C1920606160A260E360DE
:102FF0000F23FB1800221A700C23FB1800221A80E2
:103000000A23FB1800221A804D4B1B78032B2FD06C
:103010003BDC022B1FD038DC002B02D0012B0DD063
:1030200033E00F23FB1800221A700C23FB18002238
:103030001A800A23FB1800221A8033E00F23FB18A2
:1030400027221A700C23FB1864221A800A23FB180B
:1030500064221A8026E00F23FB180F221A700C231B
:10306000FB182D221A800A23FB1832221A8019E03D
:103070000F23FB180A221A700C23FB1864221A80F3
:103080000A23FB1821221A800CE00F23FB180022D0
:103090001A700C23FB1800221A800A23FB18002246
:1030A0001A80C0460823FB1800221A8030E0FB1D5E
:1030B00000221A701EE0FA1D0F23FB1812781B78ED
:1030C0009A4209D22022BB181868BB189B8801229B
:1030D000190003F0E4FF08E02022BB181868BB18B1
:1030E0009B880022190003F0DAFFFB1D1A78FB1DF4
:1030F00001321A70FB1D1B789BB20A22BA18128883
:103100009A42D8D808217B181A887B1801321A8075
:103110000823FA180C23FB1812881B889A42C6D37E
:103120002022BB181868BB189B880122190003F0E5
:10313000B6FFC046BD4605B090BC08BC04B01847F9
:10314000A802002084B090B585B000AF20243C19BF
:1031500020606160A260E3600F23FB1800221A70F8
:103160000C23FB1800221A800A23FB1800221A8065
:103170000923FB1800221A700823FB1800221A707A
:10318000604B1B78032B3BD04BDC022B27D048DC59
:10319000002B02D0012B11D043E00F23FB1800229B
:1031A0001A700C23FB1800221A800A23FB18002235
:1031B0001A800823FB1800221A7043E00F23FB1823
:1031C00000221A700C23FB1800221A800A23FB1815
:1031D00000221A800823FB1800221A7032E00F2305
:1031E000FB181D221A700C23FB1825221A800A23B3
:1031F000FB1864221A800823FB1814221A7021E09D
:103200000F23FB181D221A700C23FB1828221A808A
:103210000A23FB1864221A800823FB181E221A7046
:1032200010E00F23FB1800221A700C23FB18002259
:103230001A800A23FB1800221A800823FB18002298
:103240001A70C046BB1D00221A8040E00823FB18FC
:103250001B789BB20C22BA1812889A4203D9092310
:10326000FB1801221A707B1D00221A7022E07B1DC0
:103270001A780F23FB1819780923FB181B78CB1A2F
:103280009A4209DA2022BB181868BB189B880122D1
:10329000190003F004FF08E02022BB181868BB18CF
:1032A0009B880022190003F0FAFE7B1D1A787B1D13
:1032B00001321A707B1D1B789BB20A22BA18128841
:1032C0009A42D4D8BB1D1A88BB1D01321A80BA1D80
:1032D0000C23FB1812881B889A42B7D32022BB18F4
:1032E0001868BB189B880022190003F0D8FE092338
:1032F000FB1800221A70C046BD4605B090BC08BC41
:1033000004B01847A802002090B58DB000AF7860D7
:1033100039600C243B1900221A6004331A22002160
:10332000180006F053F93B687A680C49381906F022
:103330002DF90300FB62FB6A9AB201235B42391943
:10334000074804F029FE01235B4206490448032292
:1033500004F022FEC046BD460DB090BDD8AB0008BB
:103360007C01002008000020F0B58FB000AFF860AD
:10337000B9607A603726BB1900221A70B868FFF767
:103380003FFD04000D007868FFF70CFD02000B0004
:103390000020284906F0E6FC02000B00200029006E
:1033A000FEF73EFE02000B0010001900FFF7BEFC06
:1033B00003003B6310243B1900221A6004331A22D5
:1033C0000021180006F002F97B68FA681A493819DA
:1033D00006F0DCF80200BB191A70BB191B789AB210
:1033E00001235B423919154804F0D6FD01235B42E5
:1033F00013491248032204F0CFFD3B6BFA681149D0
:10340000381906F0C3F80200BB191A70BB191B78F3
:103410009AB201235B423919084804F0BDFD01232B
:103420005B4207490548032204F0B6FDC046BD468D
:103430000FB0F0BD00002440E4AB00087C01002088
:1034400008000020D8AB0008B0B58AB000AF7860A3
:10345000396027243B1900221A7008257B190022A5
:103460001A6004331A220021180006F0AFF83B68F6
:103470007A680D49781906F089F802003B191A702C
:103480003B191B789AB201235B427919074804F073
:1034900083FD01235B4206490448032204F07CFDBE
:1034A000C046BD460AB0B0BDF0AB00087C010020AC
:1034B00008000020B0B58AB000AF786039602724DA
:1034C0003B1900221A7008257B1900221A60043368
:1034D0001A220021180006F079F83B687A680D4935
:1034E000781906F053F802003B191A703B191B7843
:1034F0009AB201235B427919074804F04DFD01237C
:103500005B4206490448032204F046FDC046BD461E
:103510000AB0B0BDFCAB00087C0100200800002010
:10352000B0B58AB000AF7860396027243B1900221B
:103530001A7008257B1900221A6004331A22002110
:10354000180006F043F83B687A680D49781906F0D0
:103550001DF802003B191A703B191B789AB201231F
:103560005B427919074804F017FD01235B420649C5
:103570000448032204F010FDC046BD460AB0B0BDA9
:1035800008AC00087C01002008000020F0B589B0DC
:1035900004AF78607A68714B9A4200D0CCE0704BEF
:1035A0001A78704B1B681B789A4200D0B8E06C4BBD
:1035B000DA786D4B1B681B789A4200D0B0E00F237D
:1035C000FB1800221A70A1E0654B59780F243B19B3
:1035D0001A7866481300DB009B189B00C318193348
:1035E0001B7899424AD15E4B9B783A191278591E42
:1035F0008B41D8B25E491300DB009B1A9B00CB18AD
:103600001633021C1A703B191A7859491300DB0053
:103610009B1A9B00CB1816331B78002B16D03B1936
:103620001A78534C1300DB009B1A9B001021E21800
:1036300051186A4661C961C21859E2185168E21806
:103640009268E318DB68FFF7C9FC59E00F23FB1809
:103650001A78474C1300DB009B1A9B001021E218DC
:1036600051186A4661C961C21859E2185168E218D6
:103670009268E318DB68FFF765FD41E0384B597845
:103680000F243B191A7839481300DB009B189B0064
:10369000C31818331B78994232D1314B9B783A19B1
:1036A0001278591E8B41D8B231491300DB009B1AA6
:1036B0009B00CB181833021C1A703B191A782C493E
:1036C0001300DB009B1A9B00CB18083318682500F9
:1036D0003B191A7826491300DB009B1A9B00CB1874
:1036E0000C331C887B191A7821491300DB009B1AC4
:1036F0009B00CB1818331B781A00210003F0CFFC75
:103700000F217B181A787B1801321A700F23FB18CF
:103710001B78032B00D857E7164B00221A7005E0E0
:103720000F4B14220021180005F050FF0C490B4BE1
:103730000422180004F0CFFC7A680F4B9A4209D19A
:103740000E490D4B0922180004F0C5FC03001A00B5
:103750000B4B1A70C046BD4605B0F0BD7C01002081
:10376000B00300200400002000000020B002002070
:1037700040030020C503002004020020C8030020ED
:103780000007002080B500AF534B544A5448042131
:1037900005F0C8FE534B514A5348042105F0C2FEC0
:1037A000524B4E4A5248042105F0BCFE514B4B4A45
:1037B0005148042105F0B6FE504B04229A754F4B38
:1037C00005225A764D4B03221A764D4B434A4D48FB
:1037D000042105F0A7FE4C4B404A4C48042105F05B
:1037E000A1FE4B4B3D4A4B48042105F09BFE4A4B42
:1037F0003A4A4A48042105F095FE404B3A220621F8
:1038000099543E4B3D220D2199543C4B3C220C21B6
:103810009954434B314A4348042105F083FE424BFF
:103820002E4A4248042105F07DFE414B2B4A414877
:10383000042105F077FE404B284A4048042105F05A
:1038400071FE2E4B5E22072199542C4B61220F21D1
:1038500099542A4B60220E219954394B1F4A3948FA
:10386000042105F05FFE384B1C4A3848042105F05E
:1038700059FE374B194A3748042105F053FE364BA1
:10388000164A3648042105F04DFE1C4B82220821C1
:1038900099541A4B852211219954184B84221021D6
:1038A00099542F4B0D4A2F48042105F03BFE2E4B17
:1038B0000A4A2E48042105F035FE2D4B074A2D48B3
:1038C000042105F02FFE2C4B044A2C48042105F05E
:1038D00029FEC046BD4680BD28AC00082CAC0008BF
:1038E000B502002030AC0008B902002034AC00085A
:1038F000C10200203CAC0008BD020020B002002044
:1039000044AC0008D902002048AC0008DD020020C9
:103910004CAC0008E502002054AC0008E102002095
:103920005CAC0008FD02002060AC00080103002030
:1039300064AC0008090300206CAC000805030020FB
:1039400074AC0008210300207CAC00082503002093
:1039500080AC00082D03002088AC0008290300205B
:1039600090AC00089C02002094AC0008A00200204B
:1039700098AC0008A40200209CAC0008940200202F
:1039800080B582B000AFFB1D00221A7043E1FB1D21
:103990001A78A6491300DB009B1A9B00CB1816333C
:1039A00000221A70FB1D1A78A0491300DB009B1A35
:1039B0009B00CB18183300221A70FB1D1A789B4904
:1039C0001300DB009B1A9B00CB18193300221A70DE
:1039D000FB1D1B78002B42D1FB1D1A789349130065
:1039E000DB009B1A9B009022D2055A50FB1D1A78CF
:1039F0008E491300DB009B1A9B00CB1804338022F6
:103A00001A80FB1D1A7889491300DB009B1A9B0062
:103A1000CB180833864A1A60FB1D1A7883491300B5
:103A2000DB009B1A9B00CB180C3308221A80FB1D6D
:103A30001A787E491300DB009B1A9B00CB181033C9
:103A40007C4A1A60FB1D1A7878491300DB009B1A28
:103A50009B00CB181433802212011A80D6E0FB1D84
:103A60001B78012B43D1FB1D1A7870491300DB0032
:103A70009B1A9B009022D2055A50FB1D1A786B4965
:103A80001300DB009B1A9B00CB18043380225200EA
:103A90001A80FB1D1A7865491300DB009B1A9B00F6
:103AA000CB180833624A1A60FB1D1A785F4913006D
:103AB000DB009B1A9B00CB180C3304221A80FB1DE1
:103AC0001A785A491300DB009B1A9B00CB1810335D
:103AD000584A1A60FB1D1A7854491300DB009B1AE0
:103AE0009B00CB1814338022D2001A808EE0FB1D7D
:103AF0001B78022B43D1FB1D1A784C491300DB00C5
:103B00009B1A9B009022D2055A50FB1D1A784749F8
:103B10001300DB009B1A9B00CB1804338022120198
:103B20001A80FB1D1A7841491300DB009B1A9B0089
:103B3000CB1808333E4A1A60FB1D1A783B49130024
:103B4000DB009B1A9B00CB180C3302221A80FB1D52
:103B50001A7836491300DB009B1A9B00CB181033F0
:103B6000344A1A60FB1D1A7830491300DB009B1A97
:103B70009B00CB181433802292001A8046E0FB1D74
:103B80001B78032B42D1FB1D1A7828491300DB0058
:103B90009B1A9B009022D2055A50FB1D1A7823498C
:103BA0001300DB009B1A9B00CB18043380225201C8
:103BB0001A80FB1D1A781D491300DB009B1A9B001D
:103BC000CB1808331A4A1A60FB1D1A7817491300DC
:103BD000DB009B1A9B00CB180C3301221A80FB1DC3
:103BE0001A7812491300DB009B1A9B00CB18103384
:103BF000104A1A60FB1D1A780C491300DB009B1A4F
:103C00009B00CB181433802252001A80FB1D1A78B7
:103C1000FB1D01321A70FB1D1B78032B00D8B6E682
:103C2000C046C046BD4602B080BDC046400300202D
:103C3000000400480008004880B500AF8023DB0581
:103C40001B69012213400AD08023DB051A698023F7
:103C5000DB0501218A431A61024B01221A70C0461A
:103C6000BD4680BDC4030020F0B585B000AF0400A0
:103C7000080011007B600E26BB19221C1A800C253F
:103C80007B19021C1A800A23FB180A1C1A80BB1914
:103C90001A887B191B88D31A1800FDF7CDF9041C6C
:103CA0007968B86AFDF704F8031C191C201CFCF79E
:103CB000C1FE031C1C1C0A23FB181A887B191B88D5
:103CC000D31A1800FDF7B8F9031C191C201CFCF7C7
:103CD000CBFC031C7968181CFCF73CFB031C181C6C
:103CE000BD4605B0F0BD000080B582B000AF404BCE
:103CF0001B68E12252009A429B415B42DAB23D4B83
:103D00009A763B4B9B69E12252009A429B415B426F
:103D1000D9B2384B3E229954354B5B69E1225200AF
:103D20009A429B415B42D9B2324B62229954304B4A
:103D30005B68E12252009A429B415B42D9B22D4B13
:103D40008622995400237B6025E02B497A68130072
:103D5000DB009B1A9B00CB181033186826497A6841
:103D60001300DB009B1A9B00CB1814331B8819002F
:103D700003F078F903005A425341D8B21E497A68D9
:103D80001300DB009B1A9B00CB181933021C1A701E
:103D90007B6801337B607B68032BD6DD174B0021EA
:103DA000180003F05FF903001A00154B1A70104B4E
:103DB0009B689A22D2009A429B415B42DAB2114B35
:103DC0001A700B4BDB68C822D2009A429B415B42BF
:103DD000DAB20D4B1A70064B1B6964229A429B4162
:103DE0005B42DAB2094B1A70C046BD4602B080BDD4
:103DF000F4030020B0020020400300200008004827
:103E00009B02002098020020990200209A020020C4
:103E100080B584B000AF0200FB1D1A70FB1D1B783B
:103E2000002B01D0002300E0464BFB60FB1D1B78FC
:103E3000002B01D0434B00E0434BBB60FA68434B7F
:103E400011001800FFF76CFBFA68414B11001800D5
:103E5000FFF766FBFA683F4B11001800FFF760FBA5
:103E60003D4B1B78032B2FD055DC022B18D052DC96
:103E7000002B3DD0012B4ED1FC23DA00334B110037
:103E80001800FFF7E1FABA68314B11001800FFF78C
:103E9000DBFABA682F4B11001800FFF7D5FA4DE096
:103EA000BA682A4B11001800FFF7CEFAFC23DA009B
:103EB000274B11001800FFF7C7FABA68254B11000D
:103EC0001800FFF7C1FA39E0BA68204B110018005A
:103ED000FFF7BAFABA681E4B11001800FFF7B4FAE0
:103EE000FC23DA001B4B11001800FFF7ADFA25E0A8
:103EF000BA68164B11001800FFF7A6FABA68144BFF
:103F000011001800FFF7A0FABA68124B1100180050
:103F1000FFF79AFA12E0BA680C4B11001800FFF78D
:103F200093FABA680A4B11001800FFF78DFABA68C5
:103F3000084B11001800FFF787FAC046C046BD467F
:103F400004B080BDFFFF0000AA5200009C020020C8
:103F5000A0020020A4020020A802002080B582B0A8
:103F600000AF0200FB1D1A70FB1D1A786049130098
:103F7000DB009B1A9B00CB1816331B7801225340A1
:103F8000DBB2002B23D0FB1D1A785A491300DB004B
:103F90009B189B00CB181C33574A1A60FB1D1A78DC
:103FA0001300DB009B189B0010331A00514BD318F1
:103FB000581CFB1D1A784F491300DB009B189B000F
:103FC000CB181C331B681900FFF774FA8DE0FB1D3A
:103FD0001A7847491300DB009B1A9B00CB18193352
:103FE0001B7801225340DBB2002B24D0FB1D1A7832
:103FF00040491300DB009B189B00CB181C33FC22AC
:10400000D2001A60FB1D1A781300DB009B189B007E
:1040100010331A00374BD318581CFB1D1A7835493A
:104020001300DB009B189B00CB181C331B68190086
:10403000FFF740FA59E0FB1D1A782E491300DB0008
:104040009B189B00CB181C331A68FC23DB009A4298
:104050000CD1FB1D1A7827491300DB009B189B002D
:10406000CB181C33F82212021A6026E0FB1D1A78C6
:1040700020491300DB009B189B00CB181C331A68E7
:10408000F8231B029A420CD1FB1D1A781949130020
:10409000DB009B189B00CB181C33FC22D2001A605B
:1040A0000BE0FB1D1A7813491300DB009B189B00E3
:1040B000CB181C33FC22D2001A60FB1D1A781300A7
:1040C000DB009B189B0010331A000A4BD318581CB6
:1040D000FB1D1A7807491300DB009B189B00CB18C7
:1040E0001C331B681900FFF7E5F9BD4602B080BD1F
:1040F00040030020B0020020AA52000080B584B026
:1041000000AF0F23FB1800221A700E23FB180022A9
:104110001A7000233B60F9E03A681300DB009B183B
:104120009B00AB4A9B18581DA9493A681300DB0055
:104130009B189B005B580222191CFFF715F93A687F
:104140001300DB009B189B0008331A00A04BD31808
:10415000581C9F493A681300DB009B189B00CB1842
:1041600004331B781900FFF7CFF89A493A68130017
:10417000DB009B1A9B00CB1816331A780F217B1893
:104180001B781343DBB21A007B18511E8A411A7048
:1041900090493A681300DB009B1A9B00CB18183338
:1041A0001A780E217B181B781343DBB21A007B1898
:1041B000511E8A411A703B68DBB21800FFF7CEFE31
:1041C00084493A681300DB009B1A9B00CB18163316
:1041D0001B78002B51D07E493A681300DB009B18F6
:1041E0009B00CB181A331B78002B3BD078493A68D8
:1041F0001300DB009B189B00CB1820331B68764A0A
:1042000093420BD172493A681300DB009B189B0064
:10421000CB182033F82212021A6038E06C493A6851
:104220001300DB009B189B00CB1820331A68F8237F
:104230001B029A420AD166493A681300DB009B18B8
:104240009B00CB182033644A1A6020E060493A682A
:104250001300DB009B189B00CB182033F8221202BE
:104260001A6014E05A493A681300DB009B189B005F
:10427000CB182033584A1A6009E055493A681300B0
:10428000DB009B189B00CB182033544A1A603A6815
:104290001300DB009B189B004D4A9B18581D4C498E
:1042A0003A681300DB009B189B00CB1820331B6877
:1042B0001900FFF7C9F847493A681300DB009B1A59
:1042C0009B00CB1816331B78002B01D0002300E095
:1042D000414BBB603A681300DB009B189B003C4AD3
:1042E0009B18581D3A493A681300DB009B189B0045
:1042F000CB181A331B78002B01D0002300E0BB68D9
:104300001900FFF70DF93B6801333B603B68032B55
:1043100000DC01E70F23FB181B781800FFF778FD7E
:104320000E23FB181B78002B01D0002300E02A4B42
:10433000BB600E23FB181B78002B01D0264B00E03E
:10434000264B7B60264B1B68181CFEF759FD254A3F
:10435000254BFBF78FFF031E05D0F8231B02BB6024
:10436000F8231B027B601E4B1968204B01221800AA
:10437000FEF7FAFF1E4B1B78002B02D0F8231B021E
:1043800000E07B68194A19001000FFF75DF8184B30
:104390001B78002B01D0002300E0BB68134A1900F2
:1043A0001000FFF7BDF8134B1B781A00124B1100D9
:1043B0001800FEF7A9FF114B1B781A00104B1100D3
:1043C0001800FEF7A1FFC046BD4604B080BDC04640
:1043D000B002002040030020FFFF0000AA520000AE
:1043E0008C0200209A99999999F958C0A0AC0008BC
:1043F00099020020910200209402002090020020E7
:10440000A8AC000890B583B002AF1B4BDB6898B234
:104410001A4C1B4A1B491C4B0093231CFFF724FC1E
:10442000021C1A4B1A60144BDA68BE235B009A42D6
:1044300002D2164B164A1A600F4BDB6898B2002462
:10444000144AB9235900144B0093231CFFF70CFCAA
:10445000031C181CFBF766FF0300DAB20F4B1A703F
:104460000E4B1B78642B02D90C4B64221A70C04689
:10447000BD4601B090BDC046F40300209A99F9C032
:1044800062060000F603000033333B418C0200203B
:10449000CDCCC7C2A40600000000C8429102002093
:1044A00090B585B002AF334B9A68BB1D1A80324C71
:1044B000324A3349BB1D1888324B0093231CFFF747
:1044C000D3FB021C304B1A60BB1D1A88FA235B0019
:1044D0009A4203D22D4B00221A7028E0BB1D1A8885
:1044E000FA235B009A4208D3BB1D1B88284A9342DB
:1044F00003D8264B01221A7019E0BB1D1B88244AE1
:10450000934208D9BB1D1B88224A934203D81F4BF4
:1045100002221A700BE0BB1D1B881E4A934203D96E
:104520001A4B03221A7002E0184B04221A70164B21
:104530001B68181CFBF7F6FE030098B20022164B0E
:104540000093131C32220021FFF78EFB031C181C62
:10455000FBF7E8FE0300DAB2104B1A700F4B1B7822
:10456000642B02D90D4B64221A70C046BD4603B0BD
:1045700090BDC046F403002048E13A410307000023
:1045800061030000F628BA41AC020020A802002016
:1045900031050000B30A00000000C842900200206C
:1045A00080B582B000AFFB1D00221A70FB1D1B7886
:1045B000FA1D591C11701A00A64B7E219954FB1D3F
:1045C0001B78FA1D591C11701A00A24B0A2199542C
:1045D000FB1D1B78FA1D591C11701A009D4B002100
:1045E0009954FB1D1B78FA1D591C11701A00994B28
:1045F00011219954FB1D1B78FA1D591C11701A00CA
:10460000944B00219954FB1D1B78FA1D591C117005
:104610001A00914B19788F4B99548F4BFA1D1278D1
:104620001A708E4B9B7D5AB28C4B1B7E5B005BB22B
:1046300013435AB2FB1D1B78D1B2864AD154FB1DDD
:104640001B78844AD35C5AB2844B32215B5C9B005A
:1046500059B2824B34201B5CDB005BB20B435BB274
:1046600013435AB2FB1D1B78D1B27A4AD154FB1DB9
:104670001B78784AD35C5AB2784B4E215B5C1B01A5
:1046800059B2764B50201B5C5B015BB20B435BB2B3
:1046900013435AB2FB1D1B78D1B26E4AD154FB1D95
:1046A0001B786C4AD35C5AB26C4B6A215B5C9B01F1
:1046B00059B26A4B6C201B5CDB015BB20B435BB2F3
:1046C00013435AB2FB1D1B78D1B2624AD154FB1D71
:1046D0001A78FB1D01321A70614B1968FB1D1B789B
:1046E000FA1D581C10701A00C9B25A4B99545C4BF1
:1046F0001B68190AFB1D1B78FA1D581C10701A0044
:10470000C9B2544B9954564B9969FB1D1B78FA1D3D
:10471000581C10701A00C9B24E4B9954504B9B69EB
:10472000190AFB1D1B78FA1D581C10701A00C9B21B
:10473000484B99544A4B5969FB1D1B78FA1D581C6C
:1047400010701A00C9B2434B9954454B5B69190A62
:10475000FB1D1B78FA1D581C10701A00C9B23D4B86
:1047600099543F4B5968FB1D1B78FA1D581C10705B
:104770001A00C9B2374B9954394B5B68190AFB1DB3
:104780001B78FA1D581C10701A00C9B2314B99548D
:10479000334B9968FB1D1B78FA1D581C10701A00CA
:1047A000C9B22C4B99542E4B9B68190AFB1D1B78E0
:1047B000FA1D581C10701A00C9B2264B9954284B88
:1047C000D968FB1D1B78FA1D581C10701A00C9B25D
:1047D000204B9954224BDB68190AFB1D1B78FA1DEC
:1047E000581C10701A00C9B21A4B99541C4B196905
:1047F000FB1D1B78FA1D581C10701A00C9B2154B0E
:104800009954174B1B69190AFB1D1B78FA1D581C7C
:1048100010701A00C9B20F4B99540F4B1B78FA1D38
:104820001278D31ADAB20C4B1A70FB1D1A78094BA6
:104830001100180000F01CFEFB1D1B780233054A16
:104840007F21D154FB1D1B780333DBB21800BD461A
:1048500002B080BDD40300200107002040030020E7
:10486000F403002080B586B002AF0023FB6072E045
:104870003D4BFA689200D358BB603C4BBA6892003B
:10488000D35898B23A498D239A003A4B00930B1CA7
:10489000A521FFF7E9F93849FA681300DB009B18F6
:1048A0009B0058503449FA681300DB009B189B00AA
:1048B0005B58FE218905181CFBF720FD031E07D05D
:1048C000FB1D00221A70FB1D1A78FB1D01321A70A5
:1048D000264BBA689200D35898B20021274A284B39
:1048E00000930B1C0021FFF7BFF9031C181CFBF7FA
:1048F00019FD0300D8B22049FA681300DB009B18A9
:104900009B00CB180433021C1A701B49FA68130071
:10491000DB009B189B00CB1804331B78642B09D950
:104920001549FA681300DB009B189B00CB18043371
:1049300064221A700D4BBA689200D358002B07D12D
:104940000D49FA681300DB009B189B0000225A50A7
:10495000FB680133FB60FB68032B89DDC046C04662
:10496000BD4604B080BDC04668AD0008F403002019
:104970007B14AE3EE17A943FB002002014050000A3
:104980000000C84290B583B000AF3E4B1B690122C6
:10499000134005D03B4B1A693A4B01218A431A61F7
:1049A00000237B6065E0384B7A689200D358374922
:1049B0007A688A1812781400354A7968322041439F
:1049C000091949008A5A991A2F4B7A689200D150D6
:1049D0002D4B7A689200D358002B04DA2A4B7A6860
:1049E00092000021D1502B4B7A689200D158274A6F
:1049F0007B68D3181B781C0088B2254B7A6832215B
:104A00004A4312195200011CD1521F4B7A6892007E
:104A1000D258204B79688900CB58D1181A4B7A6844
:104A20009200D150184B7A689200D3583221180066
:104A3000FBF774FB030099B2174B7A685200D1520E
:104A4000124A7B68D3181B780133D9B20F4A7B68AE
:104A5000D3180A1C1A700D4A7B68D3181B78312BA7
:104A600004D90A4A7B68D31800221A707B68013384
:104A70007B607B68062B96DDC046C046BD4603B012
:104A800090BDC04600040040E40600201004002051
:104A900018040020F4030020D406002080B500AFE5
:104AA000044B1A68034B01210A431A60C046BD46F5
:104AB00080BDC0460004004080B500AF134BDA69EA
:104AC000124B02210A43DA61114B124A9A62104BCF
:104AD000C722DA620E4B1A680D4B80210A431A6016
:104AE0000B4B1A680A4B04210A431A60084BDA6818
:104AF000074B01210A43DA6000211020FEF700FA7B
:104B00001020FEF7E3F9C046BD4680BD001002400C
:104B1000000400409F0F000080B500AFFFF740FD8C
:104B200003001A001D4B1A701D4B0921180000F0DC
:104B3000E5FB0300092B2BD1194B0921180000F0CC
:104B4000FCFB031E26D1164BDB78112B16D19023CC
:104B5000DB0501220221180002F0A1FA0F4B1B789D
:104B60001A0001235B420F490F4803F015FA902306
:104B7000DB0500220221180002F091FA084B0A22FC
:104B80000021180004F022FD084B00221A7002E0F8
:104B9000C04600E0C046BD4680BDC046D2030020EE
:104BA000C8030020D403002004020020C603002014
:104BB00080B582B000AF0200BB1D1A8000F07AFF02
:104BC00002001B4B1B68D21ABB1D1B889A422AD9B4
:104BD000184B180003F0A2F9012000F075FF00F057
:104BE00063FA144B180003F045F91349114B0422E2
:104BF000180003F070FA114B180003F08FF9012030
:104C000000F062FF00F080FA0C4B180003F032F95C
:104C10000B490A4B0922180003F05DFA00F04AFF25
:104C20000200034B1A60C046BD4602B080BDC046BC
:104C3000040700207C010020B003002004020020B3
:104C4000C803002080B500AF00F034FF0200134B12
:104C50001B68D21AFA239B009A420CD900F02AFF53
:104C600002000E4B1A6080235B010D4801221900DF
:104C700002F015FA0EE000F01DFF0200074B1B6862
:104C8000D31A322B06D980235B0105480022190074
:104C900002F005FAC046BD4680BDC0460C070020A4
:104CA0000004004890B583B000AF00F0A9FE00F00A
:104CB00087F800F077FA00F057FA00F0EBF800F010
:104CC00091F900F0F1F900F01FFA00F0CBF9FC1DAA
:104CD000324B180001F0B8FB03002370FB1D1B785A
:104CE000002B01D000F004FBFC1D2D492B4B0722AB
:104CF000180001F04DF803002370FB1D1B78002BFA
:104D000001D000F0F5FAFC1D2649274B04221800BB
:104D100003F0E1F903002370FB1D1B78002B01D089
:104D200000F0E6FAFC1D2149214B0922180003F08E
:104D3000D2F903002370FB1D1B78002B01D000F07B
:104D4000D7FAFEF71FFDFEF71BFEFFF7B5FEFFF7D4
:104D5000A5FE184B1800FFF72BFFFFF7DDFEFFF74E
:104D600071FFFEF7C1FFFFF77DFDFFF74BFBFFF77C
:104D700097FB00F09FFE02000F4B1B68D31A642BB9
:104D800006D900F097FE02000B4B1A60FFF7B6F948
:104D90000A4B180002F020FBDBE7C046940000201D
:104DA000F4030020B00300207C010020C803002091
:104DB0000402002088130000080700206C01002076
:104DC00090B597B000AF28243B19180030231A0083
:104DD000002104F0FBFB1823FB18180010231A0015
:104DE000002104F0F3FB3B1D180014231A000021DE
:104DF00004F0ECFB21007B181A221A607B180122B8
:104E0000DA607B1801225A617B1810221A617B1824
:104E100010229A617B180122DA617B1802221A6241
:104E20007B1800225A627B18A02292039A627B1898
:104E30000022DA627B18180002F0DEFA031E01D0AD
:104E400000F056FA18217B1807221A607B180222FC
:104E50005A607B1800229A607B180022DA607B1867
:104E60000121180002F0E2FD031E01D000F040FA1B
:104E70003B1D01221A603B1D00229A603B1D180059
:104E800002F01AFF031E01D000F032FAC046BD4600
:104E900017B090BD80B584B000AF3B1D18000C2347
:104EA0001A00002104F092FB4C4B4D4A1A604B4B08
:104EB00000225A60494B00229A60484B0022DA6077
:104EC000464B01221A61454B08225A61434B00228E
:104ED0001A76424B00225A76404B01229A763F4B7B
:104EE0000022DA763D4BC222FF32DA613B4B0022D0
:104EF0001A623A4B242201219954384B01229A62BA
:104F0000364B180000F004FE031E01D000F0F0F94B
:104F10003B1D00221A603B1D802252015A603B1D3E
:104F200007229A603A1D2D4B1100180001F076F807
:104F3000031E01D000F0DCF93B1D03221A603A1D6C
:104F4000264B1100180001F069F8031E01D000F093
:104F5000CFF93B1D04221A603A1D204B11001800A6
:104F600001F05CF8031E01D000F0C2F93B1D0522E0
:104F70001A603A1D194B1100180001F04FF8031E7A
:104F800001D000F0B5F93B1D06221A603A1D134B03
:104F90001100180001F042F8031E01D000F0A8F93A
:104FA0003B1D0A221A603A1D0C4B1100180001F03B
:104FB00035F8031E01D000F09BF93B1D0B221A604F
:104FC0003A1D064B1100180001F028F8031E01D00D
:104FD00000F08EF9C046BD4604B080BD94000020AC
:104FE0000024014080B500AF1B4B1C4A1A601A4BCD
:104FF0001B4A5A60184B00229A60174B0122DA6054
:10500000154B00221A61144B00225A61124B0022E8
:105010009A61114B0022DA610F4B00221A620E4B8B
:10502000180002F059F8031E01D000F061F90A4B94
:105030000021180002F0E6F8031E01D000F058F934
:10504000054B0021180002F029F9031E01D000F0E1
:105050004FF9C046BD4680BD1801002000580040F1
:105060005D3E302080B500AF0B4B0C4A1A600A4BF6
:1050700003225A60084B0A4ADA60074B094A9A60D1
:10508000054B180002F056F9031E01D000F030F96C
:10509000C046BD4680BDC0466C01002000300040C7
:1050A000FF0F0000E204000080B500AF144B154A6A
:1050B0001A60134BE12252025A60114B00229A608F
:1050C0000F4B0022DA600E4B00221A610C4B0C22AF
:1050D0005A610B4B00229A61094B0022DA61084B9E
:1050E00000221A62064B00225A62054B180002F099
:1050F000C1FE031E01D000F0FBF8C046BD4680BDD6
:105100007C0100200038014080B500AF144B154AE7
:105110001A60134BE12252025A60114B00229A602E
:105120000F4B0022DA600E4B00221A610C4B0C224E
:105130005A610B4B00229A61094B0022DA61084B3D
:1051400000221A62064B00225A62054B180002F038
:1051500091FE031E01D000F0CBF8C046BD4680BDD5
:10516000040200200044004080B582B000AF0C4B28
:105170005A690B4B01210A435A61094B5B690122B1
:1051800013407B607B6800220021092001F0D2FAE5
:10519000092001F0E4FAC046BD4602B080BDC04619
:1051A0000010024090B58BB000AF14243B191800DA
:1051B00014231A00002104F009FA484B5A69474B9E
:1051C0008021C9030A435A61444B5A698023DB0397
:1051D00013403B613B69414B5A69404B80210903B5
:1051E0000A435A613D4B5A6980231B031340FB60FD
:1051F000FB683A4B5A69394B802189020A435A614C
:10520000364B5A6980239B021340BB60BB68334B0B
:105210005A69324B8021C9020A435A612F4B5A699D
:105220008023DB0213407B607B682D499023DB05E4
:105230000022180001F033FF2A492B4B00221800EE
:1052400001F02DFF3B19264A1A603B1901225A60D2
:105250003B1900229A603B190022DA603A19902328
:10526000DB051100180001F0BDFC3B191D4A1A6056
:105270003B1901225A603B1900229A603B19002217
:10528000DA603B19184A1900100001F0ABFC21004C
:105290007B18FF2212011A600C003B1900225A6091
:1052A0003B1900229A603B190F4A1900100001F0C7
:1052B00099FC21007B18F82252011A607B18002209
:1052C0005A607B1800229A607B18084A1900100067
:1052D00001F088FCC046BD460BB090BD00100240F6
:1052E000821900000FF00000000400480008004888
:1052F00080B500AF72B6C046C046FDE780B584B049
:1053000000AF78600A00FB1C1A700323FB600AE000
:10531000FB687A68D3181B787F2B01D1092308E03A
:10532000FB680133FB60FB1C1B78FA689A42EFDBD9
:1053300004231800BD4604B080BDF0B585B000AFB1
:1053400078600A00FB1C1A70FB1C1B78023B7A6811
:10535000D3181B781A000E257B1912021A80FB1C29
:105360001B78033B7A68D3181B7819007B197A19CC
:1053700012880A431A807B685A1CFB1C1B78043B6A
:10538000DBB20C26BC191900100000F00FF8030066
:105390002380BA197B1912881B889A4201D10023F5
:1053A00000E006231800BD4605B0F0BD80B584B00E
:1053B00000AF78600A00FB1C1A700A23FB182B4A06
:1053C0001A800C23FB1800221A800F23FB180022DE
:1053D0001A703CE00F23FB181B787A68D3181B78EF
:1053E0001B0299B20C22BB18BA1812884A401A80C4
:1053F0000E23FB1800221A701EE00C217B180022DD
:105400009B5E002B0CDA7B181B885B001AB20A2308
:10541000FB1800201B5E53401AB27B181A8005E06F
:105420000C23FA18FB181B88DB1813800E217B183D
:105430001A787B1801321A700E23FB181B78072B81
:10544000DBD90F217B181A787B1801321A700F23D1
:10545000FA18FB1C12781B789A42BBD30C23FB185A
:105460001B881800BD4604B080BDC0462110000056
:1054700080B584B000AF78600A00FB1C1A707B68AE
:105480005A1CFB1C1B78013BDBB219001000FFF714
:105490008DFF03001A000A217B181A800C203B188C
:1054A0007A1812881A80FB1C1B78FA1C591C117080
:1054B0001A007B689B183A1812781A70FB1C1B782C
:1054C000FA1C591C11701A007B689B183A18527804
:1054D0001A7002231800BD4604B080BD80B582B0AA
:1054E00000AF0F4B9A690E4B01210A439A610C4B96
:1054F0009B69012213407B607B68094BDA69084B8A
:10550000802149050A43DA61054BDA6980235B058E
:1055100013403B603B68C046BD4602B080BDC046FC
:105520000010024090B58BB000AF786014243B1996
:10553000180014231A00002104F048F87B681B6847
:10554000404A934279D1404B9A693F4B8021890070
:105550000A439A613C4B9A6980239B0013403B614C
:105560003B69394B5A69384B802109030A435A6118
:10557000354B5A6980231B031340FB60FB68324B99
:105580005A69314B802189020A435A612E4B5A696C
:1055900080239B021340BB60BB683B1903221A6047
:1055A0003B1903225A603B1900229A603B19274A93
:1055B0001900100001F016FB21007B1879221A60F7
:1055C0007B1803225A607B1800229A607A18902375
:1055D000DB051100180001F005FB1D4B1D4A1A6088
:1055E0001B4B00225A601A4B00229A60184B8022F3
:1055F000DA60174B802292001A61154B802212014B
:105600005A61134B20229A61114B0022DA61104B30
:10561000180001F0D1F8031E01D0FFF769FE7B6886
:105620000B4A1A630A4B7A685A62002200210C2046
:1056300001F080F80C2001F092F8C046BD460BB096
:1056400090BDC04600240140001002400008004800
:10565000D40000200800024090B58BB000AF786005
:1056600014243B19180014231A00002103F0AEFF84
:105670007B681B681A4A93422ED11A4B5A69194B00
:105680008021C9030A435A61164B5A698023DB0300
:1056900013403B613B6921007B18C0221A607B18D4
:1056A00012225A607B1800229A607B180322DA606B
:1056B0007B180D4A1900100001F094FA094BDA69C1
:1056C000084B8021C9030A43DA61064BDA6980235B
:1056D000DB031340FB60FB68C046BD460BB090BDCA
:1056E00000580040001002400014004890B58DB0F2
:1056F00000AF78601C243B19180014231A00002105
:1057000003F064FF7B681B68414A93423CD1414BE4
:105710009A69404B8021C9010A439A613D4B9A69BD
:105720008023DB011340BB61BB693A4B5A69394B9B
:10573000802189020A435A61364B5A6980239B02B1
:1057400013407B617B693B19C022D2001A602100A3
:105750007B1802225A607B1800229A607B18032271
:10576000DA607B1801221A617A189023DB05110098
:10577000180001F037FA002200211B2000F0DAFFA8
:105780001B2000F0ECFF3FE07B681B68224A93423D
:105790003AD1204BDA691F4B802189020A43DA6132
:1057A0001C4BDA6980239B0213403B613B69194B18
:1057B0005A69184B802189020A435A61154B5A696C
:1057C00080239B021340FB60FB681C217B18134A5B
:1057D0001A607B1802225A607B1800229A607B189C
:1057E0000322DA607B1801221A617A189023DB0504
:1057F0001100180001F0F6F9002200211C2000F031
:1058000099FF1C2000F0ABFFC046BD460DB090BD17
:1058100000380140001002400044004004800000B5
:1058200080B582B000AF78607B681B68164A9342EF
:1058300011D1164B9A69154B15490A409A61C0233C
:10584000DA009023DB051100180001F03BFB1B2060
:1058500000F095FF14E07B681B680E4A93420FD15D
:105860000A4BDA69094B0C490A40DA610B4A90236A
:10587000DB051100180001F025FB1C2000F07FFF64
:10588000C046BD4602B080BD003801400010024055
:10589000FFBFFFFF00440040FFFFFDFF048000004A
:1058A00080B500AFC046FDE780B500AFC046FDE75C
:1058B00080B500AFC046BD4680BD80B500AFC046D4
:1058C000BD4680BD80B500AF00F0E2F8C046BD46E1
:1058D00080BD000080B500AF034B180001F097F8C1
:1058E000C046BD4680BDC046D400002080B500AF94
:1058F000034B180000F0CEFAC046BD4680BDC0463E
:105900009400002080B500AF034B180002F03AFC71
:10591000C046BD4680BDC0467C01002080B500AFBA
:10592000034B180002F02EFCC046BD4680BDC046A9
:105930000402002080B586B000AF7860144A154B91
:10594000D31A7B617B693B61134B1B68002B02D12F
:10595000114B124A1A60104B1A687B68D3183A69C7
:105960009A4207D203F04CFE03000C221A60012376
:105970005B4209E0084B1B68FB60074B1A687B68B9
:10598000D218054B1A60FB681800BD4606B080BDF2
:105990000020002000040000100700206008002004
:1059A00080B500AFC046BD4680BD00000D488546AD
:1059B000FFF7F6FF0C480D490D4A002302E0D458CA
:1059C000C4500433C4188C42F9D30A4A0A4C002349
:1059D00001E013600432A242FBD303F017FEFFF78D
:1059E00061F9FEE700200020000000207800002080
:1059F00020AE00087800002060080020FEE70000CC
:105A000080B500AF074B1A68064B10210A431A6095
:105A1000032000F009F8FFF761FD00231800BD46E0
:105A200080BDC0460020024090B583B000AF7860D2
:105A3000144B1C68144B1B781900FA239800FAF7D2
:105A40006DFB030019002000FAF768FB0300180043
:105A500000F0A5FE031E01D001230FE07B68032B9D
:105A60000BD8796801235B420022180000F062FE27
:105A7000064B7A681A60002300E001231800BD4637
:105A800003B090BD0C000020140000201000002086
:105A900080B500AF054B1B781A00054B1B68D21868
:105AA000034B1A60C046BD4680BDC04614000020AE
:105AB0001407002080B500AF024B1B681800BD46DC
:105AC00080BDC0461407002080B584B000AF786068
:105AD000FFF7F0FF0300BB607B68FB60FB680133EE
